:10800C0082B000200190019B024B2A221A6002B020
:10801C00704700BF04880100024B13B1024800F006
:10802C0085B8704700000000658100000348044BD0
:10803C00834202D0034B03B118477047E887010015
:10804C00E887010000000000054806490B1AD90F0B
:10805C0001EBA301491002D0034B03B11847704741
:10806C00E8870100E88701000000000010B5064C0D
:10807C00237843B9FFF7DAFF044B13B10448AFF38D
:10808C0000800123237010BDE88701000000000070
:10809C009C83000008B5044B1BB104490448AFF3A2
:1080AC000080BDE80840CFE700000000EC8701002D
:1080BC009C830000A3F5803A704700BF154B002B42
:1080CC0008BF114B9D46FFF7F5FF00218B460F466D
:1080DC001148124A121A00F07DF80C4B002B00D0FC
:1080EC0098470B4B002B00D0984700200021040030
:1080FC000D000B4800F01AF800F048F82000290099
:10810C00FFF77EFF00F018F80000080000000000E8
:10811C000000000000000000E88701000888010052
:10812C006581000000207047FEE700000023014637
:10813C001A46184600F09EB808B50021044600F017
:10814C00CDF8044B1868C36B03B198472046FFF772
:10815C00EBFF00BF9083000038B50A4C0A4D641B3E
:10816C00A4100AD004F18043013B05EB8305013CCC
:10817C0055F804399847002CF9D1BDE8384000F087
:10818C00FBB800BFAC830100A883010070B50D4E95
:10819C000D4D761BB61006D00024013455F8043B67
:1081AC009847A642F9D1094E094D761BFFF722FFDD
:1081BC00B61006D00024013455F8043B9847A6426B
:1081CC00F9D170BDA0830100A0830100A883010038
:1081DC00A0830100F0B4860746D0541E002A3CD080
:1081EC00CAB2034602E014F1FF3436D303F8012B74
:1081FC009D07F8D1032C29D9CDB245EA05250F2CC2
:10820C0045EA054533D9A4F11006360903F12007D8
:10821C0007EB061703F1100242E9045542E9025537
:10822C001032BA42F8D1721C14F00C0F03EB02128C
:10823C0004F00F0613D0331F23F00303043313444D
:10824C0042F8045B9342FBD106F003042CB1C9B293
:10825C001C4403F8011B9C42FBD1F0BC7047344614
:10826C001346002CF3D1F8E714460346C2E71A462E
:10827C002646E0E7F0B4184C2568D5F8484114B30D
:10828C0065681F2D24DC38B9AB1C0135656044F8DA
:10829C0023100020F0BC704704EB85060127C6F8BC
:1082AC00882007FA05F2D4F88871022847EA0207F9
:1082BC00C4F88871C6F80831E6D1D4F88C311A4369
:1082CC00C4F88C21E0E705F5A674C5F84841D7E75A
:1082DC004FF0FF30DEE700BF908300002DE9F04F38
:1082EC00244B83B0D3F800B001908A464FF00008BD
:1082FC00DBF8486196B17468651E0FD4013406EB47
:10830C0084040127BAF1000F0BD0D4F80031534587
:10831C0007D0013D6B1CA4F10404F3D103B0BDE8FC
:10832C00F08F73682268013BAB420CBF7560C4F8D8
:10833C000080002AEDD0D6F88811D6F8049007FA00
:10834C0005FC1CEA010F08D1904772684A45CFD151
:10835C00DBF84831B342DCD0CAE7D6F88C31D4F81C
:10836C0080101CEA030F02D101989047EDE70846F4
:08837C009047EAE7908300003E
:04000003000080C9B0
:00000001FF
