:10800C0010B50021040000F065F9054B1868C36B2E
:10801C00002B01D000F006F8200000F0D9F8C04683
:10802C00FC8400001847C04600202A2282B0019030
:10803C00019B024B1A6002B07047C0466889010070
:10804C00044B10B5002B02D0034800F0BDF910BC56
:10805C0001BC004700000000E983000010B5074C8C
:10806C002378002B07D1064B002B02D0054800E0EB
:10807C0000BF0123237010BC01BC00474C890100D8
:10808C000000000008850000054B10B5002B03D044
:10809C000449054800E000BF10BC01BC0047C046C5
:1080AC0000000000508901000885000000400FE12D
:1080BC000F0014E31C00000A0D30A0E1D110A0E366
:1080CC0001F021E103D0A0E101AA4DE20A30A0E1C8
:1080DC00D710A0E301F021E103D0A0E1013A43E283
:1080EC00DB10A0E301F021E103D0A0E1013A43E26F
:1080FC00D210A0E301F021E103D0A0E1023A43E267
:10810C00D310A0E301F021E103D0A0E1023943E256
:10811C00FF30C3E3FF3CC3E3DF10A0E301F021E138
:10812C0003D0A0E1C04084E304F021E101A843E2C4
:10813C001EFF2FE17C309FE5000053E368309F0564
:10814C0003D0A0E1D8FFFFEB0010B0E301B0A0E139
:10815C000170A0E160009FE560209FE5002052E0E7
:10816C0001308FE213FF2FE100F05CF8104B002B75
:10817C0001D0FE469F460F4B002B01D0FE469F467A
:10818C000020002104000D000E48002802D00E48EB
:10819C0000F01AF900F01EF820002900FFF744FF48
:1081AC00FFF72EFF7B461847110000EF0000080078
:1081BC000000000000000000000000004C890100DD
:1081CC0090890100D5830000E983000000207047EE
:1081DC00FEE7000070B50E4D0E4E761BB61006D0A5
:1081EC00002408CD013400F01BF8A642F9D1FFF7AA
:1081FC0001FF094D094E761BB61006D0002408CDA0
:10820C00013400F00DF8A642F9D170BC01BC004756
:10821C000C8501000C8501000C8501001485010002
:10822C001847C046F0B5050083074ED0541E002AEF
:10823C0046D00A0603000326120E02E00135013C6B
:10824C003ED301332A703342F8D1032C2FD9FF22AD
:10825C000A40150215432A0415430F2C38D9270060
:10826C00103F3F093E01B4461E001A00103666440A
:10827C00156055609560D5601032B242F8D10F266A
:10828C000C2201373F012640DB19370022421AD05D
:10829C003E1FB608B400A4461A001C1D644420C23C
:1082AC00A242FCD103240136B6009B193C40002CA1
:1082BC0006D009061C19090E197001339C42FBD11A
:1082CC00F0BC02BC08473400F1E714000300BCE723
:1082DC002700DDE7F0B5DE464E4657464546E0B58D
:1082EC00364B1B6883B00190180000930F0000F010
:1082FC0097F8334B1B681A000093A4235B00D658E5
:10830C00012299469346002E31D07468651E2ED4F6
:10831C00C4235B009A460134A4003419B24402E031
:10832C00043C013D23D3002F04D080235B00E35891
:10833C00BB42F5D17368013B2268AB4236D00023B7
:10834C002360002AECD0736898465B465146AB40DC
:10835C000968194218D100F035F87368434521D1EA
:10836C004A46009B9B58B342DAD01E1ECDD1134B0C
:10837C00186800F05DF803B0F0BCBB46B246A946E5
:10838C00A046F0BC01BC004731008D31FF310968BB
:10839C0019420DD180230198E15800F013F873684D
:1083AC004345DDD04A46009B9E58ACE77560C8E754
:1083BC008023E05800F006F8CFE7C046488901005A
:1083CC00FC8400001047C04610B5010000230022B9
:1083DC00002000F02FF810BC02BC084770B5084D07
:1083EC00084C641BA41006D0013CA300EB5800F011
:1083FC000BF8002CF8D100F075F870BC01BC0047EC
:10840C0014850100188501001847C0467047C04606
:10841C007047C0467047C0467047C0467047C0465C
:10842C007047C04601207047012070477047C04616
:10843C007047C046F0B5D6464F464646C0B5274FA6
:10844C0082B006003868924698468946FFF7E8FFE6
:10845C00234B1B680193A423019A5B00D558002D74
:10846C0030D06C681F2C32DC002E11D1631C6B6079
:10847C004B460234A40038686351FFF7D9FF002043
:10848C0002B0E0BCBA46B146A846F0BC02BC0847F4
:10849C00882251462800A300EB189950873AA24035
:1084AC008930FF3001681143016084214046490046
:1084BC005850022EDAD12B008D33FF3319680A4342
:1084CC001A60D3E715004D35FF35D550C9E738682C
:1084DC00FFF7AEFF01204042D2E7C04648890100B9
:0484EC00FC8400000C
:040000030000814038
:00000001FF
