:100000000C9475000C94A6000C94A6000C94A60009
:100010000C94A6000C94A6000C94A6000C94A600C8
:100020000C94A6000C94A6000C94A6000C94A600B8
:100030000C94A6000C94A6000C94A6000C94A600A8
:100040000C94A6000C94A6000C94A6000C94A60098
:100050000C94A6000C94A6000C94A6000C94A60088
:100060000C94A6000C94A6000C94A6000C94A60078
:100070000C94A6000C94A6000C94A6000C94A60068
:100080000C94A6000C94A6000C94A6000C94A60058
:100090000C94A6000C94A6000C94A6000C94A60048
:1000A0000C94A6000C94A6000C94A6000C94A60038
:1000B0000C94A6000C94A6000C94A6000C94A60028
:1000C0000C94A6000C94A6000C94A6000C94A60018
:1000D0000C94A6000C94A6000C94A6000C94A60008
:1000E0000C94A6000C94CE00CE0011241FBECFEFBE
:1000F000D1E2DEBFCDBF00E00CBF12E0A0E0B2E075
:10010000ECE9F9E000E00BBF02C007900D92AC30C3
:10011000B107D9F722E0ACE0B2E001C01D92A931ED
:10012000B207E1F710E0C5E7D0E000E006C0219794
:100130000109802FFE010E94D500C437D10780E05D
:100140000807A9F70E94A8000C94CC040C940000A6
:10015000CF93DF9300D01F92CDB7DEB78FEF84B976
:1001600082E190E00E94DD009A83898386E092E03C
:100170009F938F930E94FE010F900F9085B1809501
:1001800085B91C821B828B819C81883E9340B4F789
:100190008B819C8101969C838B83F5CF86E190E0D7
:1001A00090930E0280930D020895EE0FFF1F881F9B
:1001B0008BBF0790F691E02D19940F931F93CF9367
:1001C000DF938230910510F482E090E0E09111021B
:1001D000F091120220E030E0A0E0B0E0309719F199
:1001E000408151810281138148175907C8F0841753
:1001F000950769F4109731F012960C9312971396A5
:100200001C9327C0009311021093120222C02115E3
:10021000310519F04217530718F49A01BD01EF0197
:10022000DF01F801DBCF21153105F9F0281B390B6F
:100230002430310580F48A819B816115710521F09C
:10024000FB019383828304C0909312028093110276
:10025000FE01329644C0FE01E20FF31F8193919399
:1002600022503109398328833AC020910F023091FE
:100270001002232B41F420910202309103023093AB
:10028000100220930F0220910002309101022115EB
:10029000310541F42DB73EB740910402509105025B
:1002A000241B350BE0910F02F0911002E217F307C7
:1002B000A0F42E1B3F0B2817390778F0AC014E5FD6
:1002C0005F4F2417350748F04E0F5F1F5093100201
:1002D00040930F028193919302C0E0E0F0E0CF01E0
:1002E000DF91CF911F910F910895CF93DF930097E6
:1002F00009F481C0FC01329713821282A09111028D
:10030000B0911202109781F420813181820F931FE6
:1003100020910F02309110022817390751F5F09300
:100320001002E0930F0267C0ED0120E030E0CE172D
:10033000DF0740F44A815B819E0141155105F1F0D0
:10034000EA01F5CFD383C28340815181840F951F89
:10035000C817D90759F488819981840F951F02968F
:10036000918380838A819B819383828321153105C8
:1003700029F4F0931202E09311023DC0E901FB83DE
:10038000EA8349915991C40FD51FEC17FD0761F419
:1003900080819181840F951F0296E901998388835A
:1003A000828193819B838A83E0E0F0E012968D91B5
:1003B0009C911397009719F0FD01DC01F7CF8D9107
:1003C0009C9111979D012E5F3F4F820F931F2091AB
:1003D0000F02309110022817390769F4309729F479
:1003E000109212021092110202C013821282B09374
:1003F0001002A0930F02DF91CF910895CF93DF9366
:10040000CDB7DEB7AE014A5F5F4FFA0161917191DE
:10041000AF0180911502909116020E941202DF91A5
:10042000CF9108952F923F924F925F926F927F9259
:100430008F929F92AF92BF92CF92DF92EF92FF92F4
:100440000F931F93CF93DF93CDB7DEB72B970FB6E4
:10045000F894DEBF0FBECDBF6C017B018A01FC01A9
:1004600017821682838181FFCCC1CE0101963C01A7
:10047000F6019381F70193FD859193FF81917F01AF
:10048000882309F4BAC1853239F493FD859193FF2D
:1004900081917F01853229F4B60190E00E943204F7
:1004A000E7CF912C212C312CFFE1F315D8F08B32C2
:1004B00079F038F4803279F08332A1F4232D206171
:1004C0001DC08D3261F0803369F4232D216016C088
:1004D000832D8260382EE32DE4603E2E2AC0F32D5A
:1004E000F8601DC037FC2DC020ED280F2A3040F0E9
:1004F0008E32B9F436FC81C1232D2064322E19C00E
:1005000036FE06C08AE0989E200D1124922E11C05E
:10051000EAE02E9E200D1124222EF32DF0623F2EB4
:1005200008C08C3621F4832D8068382E02C08836AE
:1005300041F4F70193FD859193FF81917F01811132
:10054000B3CF982F9F7D9554933028F40C5F1F4FA5
:100550009FE399830DC0833631F0833771F0833583
:1005600009F059C021C0F801808189830E5F1F4FB7
:1005700088248394912C530113C02801F2E04F0E7C
:10058000511CF801A080B18036FE03C0692D70E0D7
:1005900002C06FEF7FEFC5010E9427044C0182016A
:1005A000F32DFF773F2E16C0280122E0420E511C8A
:1005B000F801A080B18036FE03C0692D70E002C052
:1005C0006FEF7FEFC5010E941C044C01F32DF06812
:1005D0003F2E820133FC1BC0822D90E088169906C5
:1005E000B0F4B60180E290E00E9432042A94F4CF85
:1005F000F50137FC859137FE81915F01B60190E0EE
:100600000E94320421102A9421E0821A9108811458
:10061000910471F7E8C0843611F0893641F5F8018C
:1006200037FE07C060817181828193810C5F1F4F0B
:1006300008C060817181072E000C880B990B0E5F3A
:100640001F4FF32DFF763F2E97FF09C090958095A1
:10065000709561957F4F8F4F9F4FF0683F2E2AE036
:1006600030E0A3010E946E04882E861845C08537AD
:1006700031F4232D2F7EB22E2AE030E025C0932DB9
:10068000997FB92E8F36C1F018F4883579F0B5C04E
:10069000803719F0883721F0B0C0E92FE061BE2E15
:1006A000B4FE0DC0FB2DF460BF2E09C034FE0AC09D
:1006B000292F2660B22E06C028E030E005C020E1D8
:1006C00030E002C020E132E0F801B7FE07C06081EF
:1006D0007181828193810C5F1F4F06C0608171819F
:1006E00080E090E00E5F1F4FA3010E946E04882EF1
:1006F0008618FB2DFF773F2E36FE0DC0232D2E7F53
:10070000A22E891458F434FE0BC032FC09C0832D8C
:100710008E7EA82E05C0B82CA32C03C0B82C01C017
:10072000B92CA4FE0FC0FE01E80DF11D80818033BD
:1007300021F49A2D997EA92E09C0A2FE06C0B39479
:10074000B39404C08A2D867809F0B394A3FC11C039
:10075000A0FE06C0B21488F4280C922C9B180EC080
:10076000B21460F4B60180E290E00E943204B394C7
:10077000F7CFB21418F42B1802C0982C212CA4FE29
:1007800010C0B60180E390E00E943204A2FE17C0C0
:10079000A1FC03C088E790E002C088E590E0B601C4
:1007A0000CC08A2D867859F0A1FE02C08BE201C0F0
:1007B00080E2A7FC8DE2B60190E00E943204891429
:1007C00038F4B60180E390E00E9432049A94F7CFA7
:1007D0008A94F301E80DF11D8081B60190E00E943A
:1007E00032048110F5CF222009F442CEB60180E216
:1007F00090E00E9432042A94F6CFF6018681978118
:1008000002C08FEF9FEF2B960FB6F894DEBF0FBE9E
:10081000CDBFDF91CF911F910F91FF90EF90DF90AF
:10082000CF90BF90AF909F908F907F906F905F9090
:100830004F903F902F900895FC01059061507040BB
:100840000110D8F7809590958E0F9F1F0895FC0199
:100850006150704001900110D8F7809590958E0FEF
:100860009F1F08950F931F93CF93DF93FB01238165
:1008700021FD03C08FEF9FEF2CC022FF16C04681E1
:100880005781248135814217530744F4A081B181F7
:100890009D012F5F3F4F318320838C9326813781C9
:1008A0002F5F3F4F3783268314C08B01EC01FB0180
:1008B0000084F185E02D1995892BE1F6D801169673
:1008C0008D919C911797019617969C938E931697EE
:1008D000CE01DF91CF911F910F910895FA01AA27C0
:1008E000283051F1203181F1E8946F936E7F6E5F73
:1008F0007F4F8F4F9F4FAF4FB1E03ED0B4E03CD021
:10090000670F781F891F9A1FA11D680F791F8A1F03
:10091000911DA11D6A0F711D811D911DA11D20D06A
:1009200009F468943F912AE0269F11243019305D24
:100930003193DEF6CF010895462F4770405D419315
:10094000B3E00FD0C9F7F6CF462F4F70405D4A3362
:1009500018F0495D31FD4052419302D0A9F7EACF2A
:10096000B4E0A6959795879577956795BA95C9F759
:1009700000976105710508959B01AC010A2E06944C
:100980005795479537952795BA95C9F7620F731F05
:0C099000841F951FA01D0895F894FFCF50
:00000001FF
