:100000000C9472000C947E000C947E000C947E0084
:100010000C947E000C947E000C947E000C947E0068
:100020000C947E000C947E000C947E000C947E0058
:100030000C947E000C947E000C947E000C947E0048
:100040000C947E000C947E000C947E000C947E0038
:100050000C947E000C947E000C947E000C947E0028
:100060000C947E000C947E000C947E000C947E0018
:100070000C947E000C947E000C947E000C947E0008
:100080000C947E000C947E000C947E000C947E00F8
:100090000C947E000C947E000C947E000C947E00E8
:1000A0000C947E000C947E000C947E000C947E00D8
:1000B0000C947E000C947E000C947E000C947E00C8
:1000C0000C947E000C947E000C947E000C947E00B8
:1000D0000C947E000C947E000C947E000C947E00A8
:1000E0000C947E0011241FBECFEFD1E2DEBFCDBF46
:1000F00000E00CBF0E9400010C9444010C9400002D
:100100002F923F924F925F926F927F928F929F9227
:10011000AF92BF92CF92DF92EF92FF920F931F9315
:10012000CF93DF93CDB7DEB760970FB6F894DEBFFD
:100130000FBECDBF29873A874B875C876D877E8747
:100140008F87988B898589838A858A838B858B8322
:100150008C858C838D858D838E858E838F858F8313
:1001600088898887A980BA80CB80DC80ED80FE807A
:100170000F8118852A2D3B2D4C2D5D2D6E2D7F2D49
:10018000802F912FAFEF0E942C01222E332E442E70
:10019000552E662E772E882E992E29823A824B82F2
:1001A0005C826D827E828F829886E1E02A2D3B2DD3
:1001B0004C2D5D2D6E2D7F2D802F912FA0E00E9464
:1001C000380109F4E0E0EE2309F0CCCF000060969E
:1001D0000FB6F894DEBF0FBECDBFDF91CF911F9158
:1001E0000F91FF90EF90DF90CF90BF90AF909F90D6
:1001F0008F907F906F905F904F903F902F900895D9
:10020000CF93DF93CDB7DEB784E290E02FEFFC0110
:10021000208385E290E02FEFFC01208320EA36E87E
:1002200041E050E060E070E080E090E00E948000FB
:1002300085E290E0FC01108220EA36E841E050E0DF
:1002400060E070E080E090E00E94800085E290E055
:100250002FEFFC012083E2CF0024A7FD00942A0F9A
:10026000301D401D501D601D701D801D901D089586
:100270000024A7FD00942A173005400550056005AD
:0C0280007005800590050895F894FFCFEC
:00000001FF
